{
  "_format": "hh-sol-artifact-1",
  "contractName": "Tradetoken",
  "sourceName": "contracts/Tradetoken.sol",
  "abi": [
    {
      "inputs": [],
      "stateMutability": "nonpayable",
      "type": "constructor"
    },
    {
      "inputs": [
        {
          "internalType": "address",
          "name": "sender",
          "type": "address"
        },
        {
          "internalType": "uint256",
          "name": "amountgot",
          "type": "uint256"
        }
      ],
      "name": "createTrade",
      "outputs": [],
      "stateMutability": "nonpayable",
      "type": "function"
    },
    {
      "inputs": [],
      "name": "getrecenttransaction",
      "outputs": [
        {
          "internalType": "uint256",
          "name": "",
          "type": "uint256"
        }
      ],
      "stateMutability": "view",
      "type": "function"
    },
    {
      "inputs": [
        {
          "internalType": "uint256",
          "name": "tradeIdgiven",
          "type": "uint256"
        }
      ],
      "name": "getspecificTrade",
      "outputs": [
        {
          "internalType": "uint256",
          "name": "tradeId",
          "type": "uint256"
        },
        {
          "internalType": "address",
          "name": "from",
          "type": "address"
        },
        {
          "internalType": "address",
          "name": "to",
          "type": "address"
        },
        {
          "internalType": "uint256",
          "name": "amount",
          "type": "uint256"
        },
        {
          "internalType": "bool",
          "name": "status",
          "type": "bool"
        },
        {
          "internalType": "uint256",
          "name": "timestamp",
          "type": "uint256"
        }
      ],
      "stateMutability": "view",
      "type": "function"
    },
    {
      "inputs": [],
      "name": "listalltrades",
      "outputs": [
        {
          "components": [
            {
              "internalType": "uint256",
              "name": "tradeId",
              "type": "uint256"
            },
            {
              "internalType": "address",
              "name": "from",
              "type": "address"
            },
            {
              "internalType": "address",
              "name": "to",
              "type": "address"
            },
            {
              "internalType": "uint256",
              "name": "amount",
              "type": "uint256"
            },
            {
              "internalType": "bool",
              "name": "status",
              "type": "bool"
            },
            {
              "internalType": "uint256",
              "name": "timestamp",
              "type": "uint256"
            }
          ],
          "internalType": "struct Tradetoken.TradeData[]",
          "name": "",
          "type": "tuple[]"
        }
      ],
      "stateMutability": "view",
      "type": "function"
    },
    {
      "inputs": [
        {
          "internalType": "uint256",
          "name": "tradeIdSent",
          "type": "uint256"
        }
      ],
      "name": "settleTrade",
      "outputs": [],
      "stateMutability": "nonpayable",
      "type": "function"
    }
  ],
  "bytecode": "0x608060405234801561001057600080fd5b506001600281905550610ca3806100286000396000f3fe608060405234801561001057600080fd5b50600436106100575760003560e01c80630c98f22e1461005c5780630fe90dd01461007857806373422d931461009657806398424a1a146100b25780639d6b9a47146100e7575b600080fd5b61007660048036038101906100719190610869565b610105565b005b6100806103a7565b60405161008d9190610a0c565b60405180910390f35b6100b060048036038101906100ab9190610a2e565b6104eb565b005b6100cc60048036038101906100c79190610a2e565b610677565b6040516100de96959493929190610a88565b60405180910390f35b6100ef6107ba565b6040516100fc9190610ae9565b60405180910390f35b60008103610148576040517f08c379a000000000000000000000000000000000000000000000000000000000815260040161013f90610b87565b60405180910390fd5b60006040518060c0016040528060025481526020013373ffffffffffffffffffffffffffffffffffffffff1681526020018473ffffffffffffffffffffffffffffffffffffffff1681526020018381526020016000151581526020014281525090508060008060025481526020019081526020016000206000820151816000015560208201518160010160006101000a81548173ffffffffffffffffffffffffffffffffffffffff021916908373ffffffffffffffffffffffffffffffffffffffff16021790555060408201518160020160006101000a81548173ffffffffffffffffffffffffffffffffffffffff021916908373ffffffffffffffffffffffffffffffffffffffff1602179055506060820151816003015560808201518160040160006101000a81548160ff02191690831515021790555060a0820151816005015590505060018190806001815401808255809150506001900390600052602060002090600602016000909190919091506000820151816000015560208201518160010160006101000a81548173ffffffffffffffffffffffffffffffffffffffff021916908373ffffffffffffffffffffffffffffffffffffffff16021790555060408201518160020160006101000a81548173ffffffffffffffffffffffffffffffffffffffff021916908373ffffffffffffffffffffffffffffffffffffffff1602179055506060820151816003015560808201518160040160006101000a81548160ff02191690831515021790555060a08201518160050155505060016002600082825461039b9190610bd6565b92505081905550505050565b60606001805480602002602001604051908101604052809291908181526020016000905b828210156104e257838290600052602060002090600602016040518060c0016040529081600082015481526020016001820160009054906101000a900473ffffffffffffffffffffffffffffffffffffffff1673ffffffffffffffffffffffffffffffffffffffff1673ffffffffffffffffffffffffffffffffffffffff1681526020016002820160009054906101000a900473ffffffffffffffffffffffffffffffffffffffff1673ffffffffffffffffffffffffffffffffffffffff1673ffffffffffffffffffffffffffffffffffffffff168152602001600382015481526020016004820160009054906101000a900460ff16151515158152602001600582015481525050815260200190600101906103cb565b50505050905090565b600160008083815260200190815260200160002060040160006101000a81548160ff021916908315150217905550600080828152602001908152602001600020600180836105399190610c0a565b8154811061054a57610549610c3e565b5b9060005260206000209060060201600082015481600001556001820160009054906101000a900473ffffffffffffffffffffffffffffffffffffffff168160010160006101000a81548173ffffffffffffffffffffffffffffffffffffffff021916908373ffffffffffffffffffffffffffffffffffffffff1602179055506002820160009054906101000a900473ffffffffffffffffffffffffffffffffffffffff168160020160006101000a81548173ffffffffffffffffffffffffffffffffffffffff021916908373ffffffffffffffffffffffffffffffffffffffff160217905550600382015481600301556004820160009054906101000a900460ff168160040160006101000a81548160ff0219169083151502179055506005820154816005015590505050565b60008060008060008060008060008981526020019081526020016000206040518060c0016040529081600082015481526020016001820160009054906101000a900473ffffffffffffffffffffffffffffffffffffffff1673ffffffffffffffffffffffffffffffffffffffff1673ffffffffffffffffffffffffffffffffffffffff1681526020016002820160009054906101000a900473ffffffffffffffffffffffffffffffffffffffff1673ffffffffffffffffffffffffffffffffffffffff1673ffffffffffffffffffffffffffffffffffffffff168152602001600382015481526020016004820160009054906101000a900460ff16151515158152602001600582015481525050905080600001519650806020015195508060400151945080606001519350806080015192508060a0015191505091939550919395565b600060016002546107cb9190610c0a565b905090565b600080fd5b600073ffffffffffffffffffffffffffffffffffffffff82169050919050565b6000610800826107d5565b9050919050565b610810816107f5565b811461081b57600080fd5b50565b60008135905061082d81610807565b92915050565b6000819050919050565b61084681610833565b811461085157600080fd5b50565b6000813590506108638161083d565b92915050565b600080604083850312156108805761087f6107d0565b5b600061088e8582860161081e565b925050602061089f85828601610854565b9150509250929050565b600081519050919050565b600082825260208201905092915050565b6000819050602082019050919050565b6108de81610833565b82525050565b6108ed816107f5565b82525050565b60008115159050919050565b610908816108f3565b82525050565b60c08201600082015161092460008501826108d5565b50602082015161093760208501826108e4565b50604082015161094a60408501826108e4565b50606082015161095d60608501826108d5565b50608082015161097060808501826108ff565b5060a082015161098360a08501826108d5565b50505050565b6000610995838361090e565b60c08301905092915050565b6000602082019050919050565b60006109b9826108a9565b6109c381856108b4565b93506109ce836108c5565b8060005b838110156109ff5781516109e68882610989565b97506109f1836109a1565b9250506001810190506109d2565b5085935050505092915050565b60006020820190508181036000830152610a2681846109ae565b905092915050565b600060208284031215610a4457610a436107d0565b5b6000610a5284828501610854565b91505092915050565b610a6481610833565b82525050565b610a73816107f5565b82525050565b610a82816108f3565b82525050565b600060c082019050610a9d6000830189610a5b565b610aaa6020830188610a6a565b610ab76040830187610a6a565b610ac46060830186610a5b565b610ad16080830185610a79565b610ade60a0830184610a5b565b979650505050505050565b6000602082019050610afe6000830184610a5b565b92915050565b600082825260208201905092915050565b7f506c6561736520656e74657220612076616c756520677265617465722074686160008201527f6e20300000000000000000000000000000000000000000000000000000000000602082015250565b6000610b71602383610b04565b9150610b7c82610b15565b604082019050919050565b60006020820190508181036000830152610ba081610b64565b9050919050565b7f4e487b7100000000000000000000000000000000000000000000000000000000600052601160045260246000fd5b6000610be182610833565b9150610bec83610833565b9250828201905080821115610c0457610c03610ba7565b5b92915050565b6000610c1582610833565b9150610c2083610833565b9250828203905081811115610c3857610c37610ba7565b5b92915050565b7f4e487b7100000000000000000000000000000000000000000000000000000000600052603260045260246000fdfea2646970667358221220e6ddc57ae3bbe70789d48ec7faa5142bbeaa35feff6502c15f8411278ad0dbae64736f6c63430008110033",
  "linkReferences": {},
  "deployedLinkReferences": {}
}